{
  "contractName": "Tenders",
  "abi": [
    {
      "constant": true,
      "inputs": [],
      "name": "tenderCount",
      "outputs": [
        {
          "name": "",
          "type": "uint256"
        }
      ],
      "payable": false,
      "stateMutability": "view",
      "type": "function",
      "signature": "0x1f058776"
    },
    {
      "constant": true,
      "inputs": [
        {
          "name": "",
          "type": "address"
        }
      ],
      "name": "companies",
      "outputs": [
        {
          "name": "",
          "type": "bool"
        }
      ],
      "payable": false,
      "stateMutability": "view",
      "type": "function",
      "signature": "0x355e6ce8"
    },
    {
      "constant": true,
      "inputs": [
        {
          "name": "",
          "type": "uint256"
        }
      ],
      "name": "tenders",
      "outputs": [
        {
          "name": "id",
          "type": "uint256"
        },
        {
          "name": "scope",
          "type": "string"
        },
        {
          "name": "startDate",
          "type": "string"
        },
        {
          "name": "endDate",
          "type": "string"
        },
        {
          "name": "name",
          "type": "string"
        },
        {
          "name": "phoneNo",
          "type": "string"
        },
        {
          "name": "email",
          "type": "string"
        },
        {
          "name": "owner",
          "type": "address"
        },
        {
          "name": "tenderGranted",
          "type": "bool"
        }
      ],
      "payable": false,
      "stateMutability": "view",
      "type": "function",
      "signature": "0x465e1def"
    },
    {
      "constant": true,
      "inputs": [
        {
          "name": "",
          "type": "uint256"
        }
      ],
      "name": "quotations",
      "outputs": [
        {
          "name": "id",
          "type": "uint256"
        },
        {
          "name": "tenderId",
          "type": "uint256"
        },
        {
          "name": "docNo",
          "type": "uint256"
        },
        {
          "name": "description",
          "type": "string"
        },
        {
          "name": "date",
          "type": "string"
        },
        {
          "name": "details",
          "type": "string"
        },
        {
          "name": "price",
          "type": "uint256"
        },
        {
          "name": "bidder",
          "type": "address"
        }
      ],
      "payable": false,
      "stateMutability": "view",
      "type": "function",
      "signature": "0x4e896258"
    },
    {
      "constant": true,
      "inputs": [],
      "name": "quotationCount",
      "outputs": [
        {
          "name": "",
          "type": "uint256"
        }
      ],
      "payable": false,
      "stateMutability": "view",
      "type": "function",
      "signature": "0x8d291db7"
    },
    {
      "anonymous": false,
      "inputs": [
        {
          "indexed": false,
          "name": "id",
          "type": "uint256"
        },
        {
          "indexed": false,
          "name": "scope",
          "type": "string"
        },
        {
          "indexed": false,
          "name": "startDate",
          "type": "string"
        },
        {
          "indexed": false,
          "name": "endDate",
          "type": "string"
        },
        {
          "indexed": false,
          "name": "name",
          "type": "string"
        },
        {
          "indexed": false,
          "name": "phoneNo",
          "type": "string"
        },
        {
          "indexed": false,
          "name": "email",
          "type": "string"
        },
        {
          "indexed": false,
          "name": "owner",
          "type": "address"
        },
        {
          "indexed": false,
          "name": "tenderGranted",
          "type": "bool"
        }
      ],
      "name": "tenderSubmitted",
      "type": "event",
      "signature": "0x80b283e97148bba0d71dc60f9556539ca2f4bfe95a070ef573543664b70331e4"
    },
    {
      "anonymous": false,
      "inputs": [
        {
          "indexed": false,
          "name": "id",
          "type": "uint256"
        },
        {
          "indexed": false,
          "name": "tenderId",
          "type": "uint256"
        },
        {
          "indexed": false,
          "name": "docNo",
          "type": "uint256"
        },
        {
          "indexed": false,
          "name": "description",
          "type": "string"
        },
        {
          "indexed": false,
          "name": "date",
          "type": "string"
        },
        {
          "indexed": false,
          "name": "details",
          "type": "string"
        },
        {
          "indexed": false,
          "name": "price",
          "type": "uint256"
        },
        {
          "indexed": false,
          "name": "bidder",
          "type": "address"
        }
      ],
      "name": "bidded",
      "type": "event",
      "signature": "0x11f944c63a713b97656ea9685ca4c5cf9b8e9d0f847b7bf4b40870ce7e351770"
    },
    {
      "constant": false,
      "inputs": [
        {
          "name": "_scope",
          "type": "string"
        },
        {
          "name": "_startDate",
          "type": "string"
        },
        {
          "name": "_endDate",
          "type": "string"
        },
        {
          "name": "_name",
          "type": "string"
        },
        {
          "name": "_phoneNo",
          "type": "string"
        },
        {
          "name": "_email",
          "type": "string"
        }
      ],
      "name": "addTender",
      "outputs": [],
      "payable": false,
      "stateMutability": "nonpayable",
      "type": "function",
      "signature": "0x89f46509"
    },
    {
      "constant": false,
      "inputs": [
        {
          "name": "_tenderId",
          "type": "uint256"
        },
        {
          "name": "_docNo",
          "type": "uint256"
        },
        {
          "name": "_description",
          "type": "string"
        },
        {
          "name": "_date",
          "type": "string"
        },
        {
          "name": "_details",
          "type": "string"
        },
        {
          "name": "_price",
          "type": "uint256"
        }
      ],
      "name": "bidTender",
      "outputs": [],
      "payable": true,
      "stateMutability": "payable",
      "type": "function",
      "signature": "0xbbc08a16"
    },
    {
      "constant": false,
      "inputs": [
        {
          "name": "_tenderId",
          "type": "uint256"
        },
        {
          "name": "_quotationId",
          "type": "uint256"
        }
      ],
      "name": "acceptBid",
      "outputs": [],
      "payable": false,
      "stateMutability": "nonpayable",
      "type": "function",
      "signature": "0x02e9d5e4"
    }
  ],
  "bytecode": "0x608060405260008055600060035534801561001957600080fd5b50612965806100296000396000f3fe60806040526004361061008e576000357c0100000000000000000000000000000000000000000000000000000000900463ffffffff16806302e9d5e4146100935780631f058776146100d8578063355e6ce814610103578063465e1def1461016c5780634e8962581461048157806389f465091461065c5780638d291db714610a17578063bbc08a1614610a42575b600080fd5b34801561009f57600080fd5b506100d6600480360360408110156100b657600080fd5b810190808035906020019092919080359060200190929190505050610c49565b005b3480156100e457600080fd5b506100ed61139c565b6040518082815260200191505060405180910390f35b34801561010f57600080fd5b506101526004803603602081101561012657600080fd5b81019080803573ffffffffffffffffffffffffffffffffffffffff1690602001909291905050506113a2565b604051808215151515815260200191505060405180910390f35b34801561017857600080fd5b506101a56004803603602081101561018f57600080fd5b81019080803590602001909291905050506113c2565b604051808a81526020018060200180602001806020018060200180602001806020018973ffffffffffffffffffffffffffffffffffffffff1673ffffffffffffffffffffffffffffffffffffffff1681526020018815151515815260200187810387528f818151815260200191508051906020019080838360005b8381101561023b578082015181840152602081019050610220565b50505050905090810190601f1680156102685780820380516001836020036101000a031916815260200191505b5087810386528e818151815260200191508051906020019080838360005b838110156102a1578082015181840152602081019050610286565b50505050905090810190601f1680156102ce5780820380516001836020036101000a031916815260200191505b5087810385528d818151815260200191508051906020019080838360005b838110156103075780820151818401526020810190506102ec565b50505050905090810190601f1680156103345780820380516001836020036101000a031916815260200191505b5087810384528c818151815260200191508051906020019080838360005b8381101561036d578082015181840152602081019050610352565b50505050905090810190601f16801561039a5780820380516001836020036101000a031916815260200191505b5087810383528b818151815260200191508051906020019080838360005b838110156103d35780820151818401526020810190506103b8565b50505050905090810190601f1680156104005780820380516001836020036101000a031916815260200191505b5087810382528a818151815260200191508051906020019080838360005b8381101561043957808201518184015260208101905061041e565b50505050905090810190601f1680156104665780820380516001836020036101000a031916815260200191505b509f5050505050505050505050505050505060405180910390f35b34801561048d57600080fd5b506104ba600480360360208110156104a457600080fd5b81019080803590602001909291905050506117cd565b604051808981526020018881526020018781526020018060200180602001806020018681526020018573ffffffffffffffffffffffffffffffffffffffff1673ffffffffffffffffffffffffffffffffffffffff168152602001848103845289818151815260200191508051906020019080838360005b8381101561054c578082015181840152602081019050610531565b50505050905090810190601f1680156105795780820380516001836020036101000a031916815260200191505b50848103835288818151815260200191508051906020019080838360005b838110156105b2578082015181840152602081019050610597565b50505050905090810190601f1680156105df5780820380516001836020036101000a031916815260200191505b50848103825287818151815260200191508051906020019080838360005b838110156106185780820151818401526020810190506105fd565b50505050905090810190601f1680156106455780820380516001836020036101000a031916815260200191505b509b50505050505050505050505060405180910390f35b34801561066857600080fd5b50610a15600480360360c081101561067f57600080fd5b810190808035906020019064010000000081111561069c57600080fd5b8201836020820111156106ae57600080fd5b803590602001918460018302840111640100000000831117156106d057600080fd5b91908080601f016020809104026020016040519081016040528093929190818152602001838380828437600081840152601f19601f8201169050808301925050505050505091929192908035906020019064010000000081111561073357600080fd5b82018360208201111561074557600080fd5b8035906020019184600183028401116401000000008311171561076757600080fd5b91908080601f016020809104026020016040519081016040528093929190818152602001838380828437600081840152601f19601f820116905080830192505050505050509192919290803590602001906401000000008111156107ca57600080fd5b8201836020820111156107dc57600080fd5b803590602001918460018302840111640100000000831117156107fe57600080fd5b91908080601f016020809104026020016040519081016040528093929190818152602001838380828437600081840152601f19601f8201169050808301925050505050505091929192908035906020019064010000000081111561086157600080fd5b82018360208201111561087357600080fd5b8035906020019184600183028401116401000000008311171561089557600080fd5b91908080601f016020809104026020016040519081016040528093929190818152602001838380828437600081840152601f19601f820116905080830192505050505050509192919290803590602001906401000000008111156108f857600080fd5b82018360208201111561090a57600080fd5b8035906020019184600183028401116401000000008311171561092c57600080fd5b91908080601f016020809104026020016040519081016040528093929190818152602001838380828437600081840152601f19601f8201169050808301925050505050505091929192908035906020019064010000000081111561098f57600080fd5b8201836020820111156109a157600080fd5b803590602001918460018302840111640100000000831117156109c357600080fd5b91908080601f016020809104026020016040519081016040528093929190818152602001838380828437600081840152601f19601f8201169050808301925050505050505091929192905050506119fd565b005b348015610a2357600080fd5b50610a2c611ef3565b6040518082815260200191505060405180910390f35b610c47600480360360c0811015610a5857600080fd5b81019080803590602001909291908035906020019092919080359060200190640100000000811115610a8957600080fd5b820183602082011115610a9b57600080fd5b80359060200191846001830284011164010000000083111715610abd57600080fd5b91908080601f016020809104026020016040519081016040528093929190818152602001838380828437600081840152601f19601f82011690508083019250505050505050919291929080359060200190640100000000811115610b2057600080fd5b820183602082011115610b3257600080fd5b80359060200191846001830284011164010000000083111715610b5457600080fd5b91908080601f016020809104026020016040519081016040528093929190818152602001838380828437600081840152601f19601f82011690508083019250505050505050919291929080359060200190640100000000811115610bb757600080fd5b820183602082011115610bc957600080fd5b80359060200191846001830284011164010000000083111715610beb57600080fd5b91908080601f016020809104026020016040519081016040528093929190818152602001838380828437600081840152601f19601f82011690508083019250505050505050919291929080359060200190929190505050611ef9565b005b610c516127d3565b600160008381526020019081526020016000206101006040519081016040529081600082015481526020016001820154815260200160028201548152602001600382018054600181600116156101000203166002900480601f016020809104026020016040519081016040528092919081815260200182805460018160011615610100020316600290048015610d285780601f10610cfd57610100808354040283529160200191610d28565b820191906000526020600020905b815481529060010190602001808311610d0b57829003601f168201915b50505050508152602001600482018054600181600116156101000203166002900480601f016020809104026020016040519081016040528092919081815260200182805460018160011615610100020316600290048015610dca5780601f10610d9f57610100808354040283529160200191610dca565b820191906000526020600020905b815481529060010190602001808311610dad57829003601f168201915b50505050508152602001600582018054600181600116156101000203166002900480601f016020809104026020016040519081016040528092919081815260200182805460018160011615610100020316600290048015610e6c5780601f10610e4157610100808354040283529160200191610e6c565b820191906000526020600020905b815481529060010190602001808311610e4f57829003601f168201915b50505050508152602001600682015481526020016007820160009054906101000a900473ffffffffffffffffffffffffffffffffffffffff1673ffffffffffffffffffffffffffffffffffffffff1673ffffffffffffffffffffffffffffffffffffffff16815250509050610edf61282f565b60046000858152602001908152602001600020610120604051908101604052908160008201548152602001600182018054600181600116156101000203166002900480601f016020809104026020016040519081016040528092919081815260200182805460018160011615610100020316600290048015610fa25780601f10610f7757610100808354040283529160200191610fa2565b820191906000526020600020905b815481529060010190602001808311610f8557829003601f168201915b50505050508152602001600282018054600181600116156101000203166002900480601f0160208091040260200160405190810160405280929190818152602001828054600181600116156101000203166002900480156110445780601f1061101957610100808354040283529160200191611044565b820191906000526020600020905b81548152906001019060200180831161102757829003601f168201915b50505050508152602001600382018054600181600116156101000203166002900480601f0160208091040260200160405190810160405280929190818152602001828054600181600116156101000203166002900480156110e65780601f106110bb576101008083540402835291602001916110e6565b820191906000526020600020905b8154815290600101906020018083116110c957829003601f168201915b50505050508152602001600482018054600181600116156101000203166002900480601f0160208091040260200160405190810160405280929190818152602001828054600181600116156101000203166002900480156111885780601f1061115d57610100808354040283529160200191611188565b820191906000526020600020905b81548152906001019060200180831161116b57829003601f168201915b50505050508152602001600582018054600181600116156101000203166002900480601f01602080910402602001604051908101604052809291908181526020018280546001816001161561010002031660029004801561122a5780601f106111ff5761010080835404028352916020019161122a565b820191906000526020600020905b81548152906001019060200180831161120d57829003601f168201915b50505050508152602001600682018054600181600116156101000203166002900480601f0160208091040260200160405190810160405280929190818152602001828054600181600116156101000203166002900480156112cc5780601f106112a1576101008083540402835291602001916112cc565b820191906000526020600020905b8154815290600101906020018083116112af57829003601f168201915b505050505081526020016007820160009054906101000a900473ffffffffffffffffffffffffffffffffffffffff1673ffffffffffffffffffffffffffffffffffffffff1673ffffffffffffffffffffffffffffffffffffffff1681526020016007820160149054906101000a900460ff16151515158152505090508160e001518160e0019073ffffffffffffffffffffffffffffffffffffffff16908173ffffffffffffffffffffffffffffffffffffffff168152505060018161010001901515908115158152505050505050565b60035481565b60026020528060005260406000206000915054906101000a900460ff1681565b6004602052806000526040600020600091509050806000015490806001018054600181600116156101000203166002900480601f0160208091040260200160405190810160405280929190818152602001828054600181600116156101000203166002900480156114745780601f1061144957610100808354040283529160200191611474565b820191906000526020600020905b81548152906001019060200180831161145757829003601f168201915b505050505090806002018054600181600116156101000203166002900480601f0160208091040260200160405190810160405280929190818152602001828054600181600116156101000203166002900480156115125780601f106114e757610100808354040283529160200191611512565b820191906000526020600020905b8154815290600101906020018083116114f557829003601f168201915b505050505090806003018054600181600116156101000203166002900480601f0160208091040260200160405190810160405280929190818152602001828054600181600116156101000203166002900480156115b05780601f10611585576101008083540402835291602001916115b0565b820191906000526020600020905b81548152906001019060200180831161159357829003601f168201915b505050505090806004018054600181600116156101000203166002900480601f01602080910402602001604051908101604052809291908181526020018280546001816001161561010002031660029004801561164e5780601f106116235761010080835404028352916020019161164e565b820191906000526020600020905b81548152906001019060200180831161163157829003601f168201915b505050505090806005018054600181600116156101000203166002900480601f0160208091040260200160405190810160405280929190818152602001828054600181600116156101000203166002900480156116ec5780601f106116c1576101008083540402835291602001916116ec565b820191906000526020600020905b8154815290600101906020018083116116cf57829003601f168201915b505050505090806006018054600181600116156101000203166002900480601f01602080910402602001604051908101604052809291908181526020018280546001816001161561010002031660029004801561178a5780601f1061175f5761010080835404028352916020019161178a565b820191906000526020600020905b81548152906001019060200180831161176d57829003601f168201915b5050505050908060070160009054906101000a900473ffffffffffffffffffffffffffffffffffffffff16908060070160149054906101000a900460ff16905089565b6001602052806000526040600020600091509050806000015490806001015490806002015490806003018054600181600116156101000203166002900480601f01602080910402602001604051908101604052809291908181526020018280546001816001161561010002031660029004801561188b5780601f106118605761010080835404028352916020019161188b565b820191906000526020600020905b81548152906001019060200180831161186e57829003601f168201915b505050505090806004018054600181600116156101000203166002900480601f0160208091040260200160405190810160405280929190818152602001828054600181600116156101000203166002900480156119295780601f106118fe57610100808354040283529160200191611929565b820191906000526020600020905b81548152906001019060200180831161190c57829003601f168201915b505050505090806005018054600181600116156101000203166002900480601f0160208091040260200160405190810160405280929190818152602001828054600181600116156101000203166002900480156119c75780601f1061199c576101008083540402835291602001916119c7565b820191906000526020600020905b8154815290600101906020018083116119aa57829003601f168201915b5050505050908060060154908060070160009054906101000a900473ffffffffffffffffffffffffffffffffffffffff16905088565b60008651111515611a0d57600080fd5b60008351111515611a1d57600080fd5b600a8251141515611a2d57600080fd5b60008151111515611a3d57600080fd5b6003600081548092919060010191905055506101206040519081016040528060035481526020018781526020018681526020018581526020018481526020018381526020018281526020013373ffffffffffffffffffffffffffffffffffffffff16815260200160001515815250600460006003548152602001908152602001600020600082015181600001556020820151816001019080519060200190611ae6929190612894565b506040820151816002019080519060200190611b03929190612894565b506060820151816003019080519060200190611b20929190612894565b506080820151816004019080519060200190611b3d929190612894565b5060a0820151816005019080519060200190611b5a929190612894565b5060c0820151816006019080519060200190611b77929190612894565b5060e08201518160070160006101000a81548173ffffffffffffffffffffffffffffffffffffffff021916908373ffffffffffffffffffffffffffffffffffffffff1602179055506101008201518160070160146101000a81548160ff0219169083151502179055509050507f80b283e97148bba0d71dc60f9556539ca2f4bfe95a070ef573543664b70331e4600354878787878787336000604051808a81526020018060200180602001806020018060200180602001806020018973ffffffffffffffffffffffffffffffffffffffff1673ffffffffffffffffffffffffffffffffffffffff1681526020018815151515815260200187810387528f818151815260200191508051906020019080838360005b83811015611ca6578082015181840152602081019050611c8b565b50505050905090810190601f168015611cd35780820380516001836020036101000a031916815260200191505b5087810386528e818151815260200191508051906020019080838360005b83811015611d0c578082015181840152602081019050611cf1565b50505050905090810190601f168015611d395780820380516001836020036101000a031916815260200191505b5087810385528d818151815260200191508051906020019080838360005b83811015611d72578082015181840152602081019050611d57565b50505050905090810190601f168015611d9f5780820380516001836020036101000a031916815260200191505b5087810384528c818151815260200191508051906020019080838360005b83811015611dd8578082015181840152602081019050611dbd565b50505050905090810190601f168015611e055780820380516001836020036101000a031916815260200191505b5087810383528b818151815260200191508051906020019080838360005b83811015611e3e578082015181840152602081019050611e23565b50505050905090810190601f168015611e6b5780820380516001836020036101000a031916815260200191505b5087810382528a818151815260200191508051906020019080838360005b83811015611ea4578082015181840152602081019050611e89565b50505050905090810190601f168015611ed15780820380516001836020036101000a031916815260200191505b509f5050505050505050505050505050505060405180910390a1505050505050565b60005481565b611f0161282f565b60046000888152602001908152602001600020610120604051908101604052908160008201548152602001600182018054600181600116156101000203166002900480601f016020809104026020016040519081016040528092919081815260200182805460018160011615610100020316600290048015611fc45780601f10611f9957610100808354040283529160200191611fc4565b820191906000526020600020905b815481529060010190602001808311611fa757829003601f168201915b50505050508152602001600282018054600181600116156101000203166002900480601f0160208091040260200160405190810160405280929190818152602001828054600181600116156101000203166002900480156120665780601f1061203b57610100808354040283529160200191612066565b820191906000526020600020905b81548152906001019060200180831161204957829003601f168201915b50505050508152602001600382018054600181600116156101000203166002900480601f0160208091040260200160405190810160405280929190818152602001828054600181600116156101000203166002900480156121085780601f106120dd57610100808354040283529160200191612108565b820191906000526020600020905b8154815290600101906020018083116120eb57829003601f168201915b50505050508152602001600482018054600181600116156101000203166002900480601f0160208091040260200160405190810160405280929190818152602001828054600181600116156101000203166002900480156121aa5780601f1061217f576101008083540402835291602001916121aa565b820191906000526020600020905b81548152906001019060200180831161218d57829003601f168201915b50505050508152602001600582018054600181600116156101000203166002900480601f01602080910402602001604051908101604052809291908181526020018280546001816001161561010002031660029004801561224c5780601f106122215761010080835404028352916020019161224c565b820191906000526020600020905b81548152906001019060200180831161222f57829003601f168201915b50505050508152602001600682018054600181600116156101000203166002900480601f0160208091040260200160405190810160405280929190818152602001828054600181600116156101000203166002900480156122ee5780601f106122c3576101008083540402835291602001916122ee565b820191906000526020600020905b8154815290600101906020018083116122d157829003601f168201915b505050505081526020016007820160009054906101000a900473ffffffffffffffffffffffffffffffffffffffff1673ffffffffffffffffffffffffffffffffffffffff1673ffffffffffffffffffffffffffffffffffffffff1681526020016007820160149054906101000a900460ff161515151581525050905060008160e0015190506000865111151561238357600080fd5b6000845111151561239357600080fd5b6000831115156123a257600080fd5b600234101515156123b257600080fd5b600260003373ffffffffffffffffffffffffffffffffffffffff1673ffffffffffffffffffffffffffffffffffffffff16815260200190815260200160002060009054906101000a900460ff1615151561240b57600080fd5b81610100015115151561241d57600080fd5b6001600260003373ffffffffffffffffffffffffffffffffffffffff1673ffffffffffffffffffffffffffffffffffffffff16815260200190815260200160002060006101000a81548160ff02191690831515021790555060008081548092919060010191905055508073ffffffffffffffffffffffffffffffffffffffff166108fc349081150290604051600060405180830381858888f193505050501580156124cc573d6000803e3d6000fd5b506101006040519081016040528060005481526020018981526020018881526020018781526020018681526020018581526020018481526020013373ffffffffffffffffffffffffffffffffffffffff168152506001600080548152602001908152602001600020600082015181600001556020820151816001015560408201518160020155606082015181600301908051906020019061256e929190612894565b50608082015181600401908051906020019061258b929190612894565b5060a08201518160050190805190602001906125a8929190612894565b5060c0820151816006015560e08201518160070160006101000a81548173ffffffffffffffffffffffffffffffffffffffff021916908373ffffffffffffffffffffffffffffffffffffffff1602179055509050507f11f944c63a713b97656ea9685ca4c5cf9b8e9d0f847b7bf4b40870ce7e35177060005489898989898933604051808981526020018881526020018781526020018060200180602001806020018681526020018573ffffffffffffffffffffffffffffffffffffffff1673ffffffffffffffffffffffffffffffffffffffff168152602001848103845289818151815260200191508051906020019080838360005b838110156126ba57808201518184015260208101905061269f565b50505050905090810190601f1680156126e75780820380516001836020036101000a031916815260200191505b50848103835288818151815260200191508051906020019080838360005b83811015612720578082015181840152602081019050612705565b50505050905090810190601f16801561274d5780820380516001836020036101000a031916815260200191505b50848103825287818151815260200191508051906020019080838360005b8381101561278657808201518184015260208101905061276b565b50505050905090810190601f1680156127b35780820380516001836020036101000a031916815260200191505b509b50505050505050505050505060405180910390a15050505050505050565b6101006040519081016040528060008152602001600081526020016000815260200160608152602001606081526020016060815260200160008152602001600073ffffffffffffffffffffffffffffffffffffffff1681525090565b6101206040519081016040528060008152602001606081526020016060815260200160608152602001606081526020016060815260200160608152602001600073ffffffffffffffffffffffffffffffffffffffff1681526020016000151581525090565b828054600181600116156101000203166002900490600052602060002090601f016020900481019282601f106128d557805160ff1916838001178555612903565b82800160010185558215612903579182015b828111156129025782518255916020019190600101906128e7565b5b5090506129109190612914565b5090565b61293691905b8082111561293257600081600090555060010161291a565b5090565b9056fea165627a7a723058207c76661a9ce45217fca4fa055c793c026de7efc978f72c9fd6e304f61a91570d0029",
  "source": "pragma solidity ^0.5.0;\r\n\r\ncontract Tenders{\r\n\r\n\t//Model a Tender\r\n\tstruct Tender{\r\n\t\tuint id;\r\n\t\tstring scope;\r\n\t\tstring startDate;\r\n\t\tstring endDate;\r\n\t\tstring name;\r\n\t\tstring phoneNo;\r\n\t\tstring email;\r\n\t\taddress payable owner;\r\n\t\tbool tenderGranted;\r\n\t}\r\n\r\n\t//Model the Qutation\r\n\tstruct Quotations{\r\n\t\tuint id;\r\n\t\tuint tenderId;\r\n\t\tuint docNo;\r\n\t\tstring description;\r\n\t\tstring date;\r\n\t\tstring details;\r\n\t\tuint price;\r\n\t\taddress payable bidder;\r\n\r\n\t}\r\n\r\n\tuint public quotationCount = 0;\r\n\tmapping (uint => Quotations) public quotations;\r\n\t\r\n\tmapping(address => bool) public companies;\r\n\r\n\tuint public tenderCount = 0;\r\n\tmapping(uint => Tender) public tenders;\r\n\r\n\tevent tenderSubmitted(\r\n\t\tuint id,\r\n\t\tstring scope,\r\n\t\tstring startDate,\r\n\t\tstring endDate,\r\n\t\tstring name,\r\n\t\tstring phoneNo,\r\n\t\tstring email,\r\n\t\taddress payable owner,\r\n\t\tbool tenderGranted\r\n\t\t);\r\n\r\n\r\n\tevent bidded(\r\n\t\tuint id,\r\n\t\tuint tenderId,\r\n\t\tuint docNo,\r\n\t\tstring description,\r\n\t\tstring date,\r\n\t\tstring details,\r\n\t\tuint price,\r\n\t\taddress payable bidder\r\n\t\t);\r\n\r\n\tfunction addTender(string memory _scope, string memory _startDate, string memory _endDate, string memory _name, string memory _phoneNo, string memory _email) public {\r\n\r\n\t\trequire(bytes(_scope).length > 0);\r\n\t\trequire(bytes(_name).length > 0);\r\n\t\trequire(bytes(_phoneNo).length == 10);\r\n\t\trequire(bytes(_email).length > 0);\r\n\t\ttenderCount++;\r\n\t\ttenders[tenderCount] = Tender(tenderCount, _scope, _startDate, _endDate, _name, _phoneNo, _email, msg.sender, false);\r\n\r\n\t\temit tenderSubmitted(tenderCount, _scope, _startDate, _endDate, _name, _phoneNo, _email, msg.sender, false);\r\n\r\n\t}\t\r\n\r\n\t// function addItem ( string memory _itemName, uint _itemPrice) public {\r\n\t// \trequire(bytes(_itemName).length > 0);\r\n\t// \trequire(_itemPrice > 0);\r\n\t// \titemCount++;\r\n\t// \tquotationsItems[itemCount] = QuotationsItems(itemCount, _itemName, _itemPrice);\t\r\n\t// \temit itemAdded(itemCount, _itemName, _itemPrice);\t\r\n\t// }\r\n\t\r\n\tfunction bidTender (uint _tenderId, uint _docNo, string memory _description, string memory _date, string memory _details, uint _price) public payable {\r\n\r\n\r\n\t\tTender memory _tender = tenders[_tenderId];\r\n\t\taddress payable _owner = _tender.owner;\r\n\t\trequire (bytes(_description).length > 0);\r\n\r\n\t\trequire (bytes(_details).length > 0);\r\n\t\trequire(_price > 0);\r\n\t\trequire(msg.value >= 2);\r\n\r\n\t\trequire(!companies[msg.sender]);\r\n\t\trequire(!_tender.tenderGranted);\r\n\r\n\t\tcompanies[msg.sender] = true;\r\n\r\n\t\tquotationCount++;\r\n\t\taddress(_owner).transfer(msg.value);\r\n\r\n\r\n\t\tquotations[quotationCount] = Quotations(quotationCount, _tenderId, _docNo, _description, _date, _details, _price, msg.sender);\r\n\t\temit bidded(quotationCount, _tenderId, _docNo, _description, _date, _details, _price, msg.sender);\r\n\t\t\r\n\t}\r\n\r\n\tfunction acceptBid(uint _tenderId, uint _quotationId) public {\r\n\t\tQuotations memory _quotation = quotations[_quotationId];\r\n\t\tTender memory _tender = tenders[_tenderId];\r\n\t\t_tender.owner = _quotation.bidder;\r\n\t\t_tender.tenderGranted = true;\r\n\t}\r\n\t\r\n}\r\n",
  "sourcePath": "D:/SIH/GAIL/contracts/Tenders.sol",
  "compiler": {
    "name": "solc",
    "version": "0.5.0+commit.1d4f565a.Emscripten.clang"
  },
  "schemaVersion": "3.0.1",
  "updatedAt": "2020-02-07T04:12:03.232Z",
  "devdoc": {
    "methods": {}
  },
  "userdoc": {
    "methods": {}
  }
}